:020000040800F2
:1000000000280020C5250008152600080902000860
:100010000F020008150200081B0200080000000083
:1000200000000000000000000000000021020008A5
:1000300015260008000000002D0D0008C10C000866
:1000400015260008152600081526000815260008A4
:10005000152600081526000851130008851300080E
:10006000B9130008ED130008211400081526000834
:100070001526000815260008152600081526000874
:100080001526000815260008152600081526000864
:100090001526000815260008152600085514000826
:1000A0001526000815260008152600081526000844
:1000B0001526000815260008152600081526000834
:1000C0001526000815260008152600081526000824
:1000D0001526000815260008152600081526000814
:1000E0000D15000815260008000000001526000860
:1000F00015260008152600081526000815260008F4
:1001000015260008152600081526000815260008E3
:1001100015260008152600081526000815260008D3
:1001200015260008152600081526000815260008C3
:1001300010B5054C237833B9044B13B10448AFF321
:1001400000800123237010BD9800002000000000F3
:100150006026000808B5034B1BB103490348AFF301
:10016000008008BD000000009C0000206026000800
:1001700080B483B000AF03463960FB7197F9073054
:10018000002B0ADB3B68DAB20C4997F907305201C1
:10019000D2B20B4483F800230AE03B68DAB2084984
:1001A000FB7903F00F03043B5201D2B20B441A76E1
:1001B00000BF0C37BD4680BC704700BF00E100E0C7
:1001C00000ED00E080B582B000AF78607B68013B55
:1001D000B3F1807F01D301230FE00A4A7B68013B22
:1001E000536007214FF0FF30FFF7C2FF054B00229D
:1001F0009A60044B07221A60002318460837BD4650
:1002000080BD00BF10E000E080B400AFFEE780B426
:1002100000AFFEE780B400AFFEE780B400AFFEE7BA
:100220001EF0040F0CBFEFF30880EFF3098000F01D
:1002300009BB00BF80B500AF0F216FF00100FFF7D1
:1002400097FF00BF80BD80B500AF4FF47A50FFF735
:10025000B9FF00BF80BD80B485B000AFF860B96061
:100260007A60BB68002B01D103230FE0FB68BA68FA
:100270001A60FB68BA685A60FB68BA689A60FB68E3
:100280000022DA607A68FB681A6100231846143786
:10029000BD4680BC704780B483B000AF78603960E1
:1002A0007B681B68002B01D1032326E07B68DA689A
:1002B0007B681B699A4201D101231EE07B689B6821
:1002C0001A467B681B68D31A9B101A467B681B6909
:1002D0009A4203D17B681A687B689A607B689B6846
:1002E0003A681A607B689B681A1D7B689A607B6815
:1002F000DB685A1C7B68DA60002318460C37BD4661
:1003000080BC704780B485B000AF78607B681B68A4
:10031000002B01D1002330E07B68DB68002B01D18A
:1003200000232AE07B685B681A467B681B68D31A47
:100330009B101A467B681B69013B9A420ED17B6871
:100340005B681B68FB607B681A687B685A607B6827
:10035000DB685A1E7B68DA60FB680EE07B68DB684E
:100360005A1E7B68DA607B685B681B68FB607B6891
:100370005B681A1D7B685A60FB6818461437BD46D7
:1003800080BC704780B500AF0C4B1B78DBB2002BF4
:100390000AD00B4B1B78DBB2002B05D1084B012296
:1003A0001A70084800F0C6FB074B1B7883F0010366
:1003B000DAB2054B1A7020BFE6E700BFD00000207C
:1003C000C400002010050020B400002080B400AF5D
:1003D0000B4A0C4BC3F890210A4BD3F89031A3F58C
:1003E0004063084AC2F89431064BD3F89431083B75
:1003F000044AC2F8983100BFBD4680BC704700BFB8
:1004000000280020DC00002080B485B000AF7860B8
:100410007B68DB681A467B685A617B685B691A1FD8
:100420007B685A617B685B694FF080721A607B68F9
:100430005B691A1F7B685A617B689A687B685B6995
:100440001A607B685B691A1F7B685A617B685B690D
:100450006FF002021A600023FB600023FB600BE0D8
:100460007B685B691A1F7B685A617B685B69002245
:100470001A60FB680133FB60FB680C2BF0DD002386
:1004800018461437BD4680BC7047000080B483B066
:1004900000AF0346FB71FB79013B072B22D801A279
:1004A00052F823F0C5040008C9040008CD04000870
:1004B000D1040008D5040008D9040008DD040008B0
:1004C000E104000801DF0EE002DF0CE003DF0AE0D8
:1004D00004DF08E005DF06E006DF04E007DF02E0F6
:1004E00008DF00E000BF00BF0C37BD4680BC70478E
:1004F00080B483B000AF4F4B00221A6015E04D4B23
:100500001B684D4A52F8233093F84030002B07D037
:10051000484B1B68484A52F82330012283F8402098
:10052000444B1B680133434A1360424B1A68434BE8
:100530001B689A42E3DD3F4B00221A606FE03D4B9F
:100540001B6801333E4A13605EE03D4B1B683A4A2C
:1005500052F8233093F84020364B1B68364951F847
:10056000233093F840309A4215D9324B1B68324AF7
:1005700052F823307B60324B1A682E4B1B682E4991
:1005800051F822202C4941F823202D4B1B682A4981
:100590007A6841F823202A4B1B68274A52F82330F7
:1005A00093F84020234B1B68234951F8233093F8DC
:1005B00040309A4223D1224B1B681F4A52F8233005
:1005C0001A791C4B1B681C4951F823301B799A423D
:1005D00015D2184B1B68184A52F823307B60184B11
:1005E0001A68144B1B68144951F82220124941F82B
:1005F0002320134B1B6810497A6841F82320104BC5
:100600001B6801330E4A13600D4B1A680B4B1B68B5
:100610009A429ADD074B1B680133064A1360054B6B
:100620001A68064B1B689A4289DB00BF0C37BD462F
:1006300080BC7047B8000020DC00002000000020D3
:10064000D800002080B483B000AF78607B680022BF
:100650001A7000BF18460C37BD4680BC704780B486
:1006600083B000AF78607B6801221A7000BF184623
:100670000C37BD4680BC704780B483B000AF786053
:100680007B681B7818460C37BD4680BC704700005D
:1006900080B483B000AF00237B6007E0104A7B6822
:1006A000002142F823107B6801337B600C4A7B6891
:1006B00052F82330002B02D07B68632BEEDD094B10
:1006C0000022DA60074B1B68064A5360054B1B6823
:1006D000044A936000BF0C37BD4680BC704700BF22
:1006E000D80200206C04002080B582B000AF204BFF
:1006F0001B6893F84030002B36D01D4B1B68194601
:100700001C48FFF7C8FD1A4B1B68022283F84020E3
:1007100001237B6023E0164A7B6852F823301A7964
:10072000134B1B681B799A421ED1114A7B6852F801
:10073000233093F84030002B16D00D4A7B6852F8D6
:10074000233019460B48FFF7A6FD094A7B6852F88B
:100750002330022283F840207B6801337B60064B04
:100760001B687A689A42D6DD00BF0837BD4680BD57
:10077000DC0000206C0400200000002080B500AFE9
:10078000274BDB68002B1AD1264BD3F89C3193F80A
:100790004030002B13D0234BD3F89C31032283F835
:1007A0004020204BD3F89C3119461D48FFF773FDBC
:1007B0001C4BD3F89C311B4AC2F8A0312EE0184BD9
:1007C000DB68002B2AD01648FFF79CFD0246154B2C
:1007D000C3F8A021134BD3F8A031032283F84020A3
:1007E000104BD3F89C311A790E4BD3F8A0311B79FA
:1007F0009A4213D10B4BD3F89C3193F84030002B25
:100800000CD0084BD3F89C3119460548FFF743FD3F
:10081000044BD3F89C31022283F8402000BF80BDF6
:100820006C040020DC00002080B400AF044B5B6847
:10083000034A43F08053536000BFBD4680BC7047FD
:1008400000ED00E080B584B000AF78607B681833BD
:100850007B607B681B68FB60FB68023BFB60FB689E
:100860001B88FB72FB7A013B072B50D801A252F880
:1008700023F000BF950800089508000895080008B7
:1008800095080008C1080008DB080008E90800080E
:1008900003090008FFF72CFEFFF7FAFEFFF724FF1D
:1008A0001E4B93F8A831012B33D11C4BD3F89C314C
:1008B0001B4A93422DD0FFF761FFFFF7B5FF28E0F9
:1008C000184B5B69174A43F0C0035361062000F0E0
:1008D000B1FB072000F0AEFB1CE0062000F058FC46
:1008E000072000F055FC15E00E4B5B690D4A43F400
:1008F000404353610E2000F09DFB0F2000F09AFB57
:1009000008E00E2000F044FC0F2000F041FC00BF86
:1009100000E000BF00BF1037BD4680BDDC000020F6
:10092000880200200004014080B500AF324B002255
:100930001A6058E0304B1B68304A52F8233093F865
:100940004430002B26D12C4B1B682C4A52F8233004
:100950009A6C013A9A642A4B9A6C2A4BA3FB0213B5
:100960009B094FF47A7101FB03F3D31A002B11D1C9
:10097000234B9B6C002B0DD01F4B1B681F4A52F85A
:1009800023301F4A934205D11F4B5B78013BDAB2FB
:100990001D4B5A70184B1B68184A52F823309B6C39
:1009A000002B1BD1144B1B68144A52F8233093F8C8
:1009B0004430002B12D1104B1B68104A52F82330E0
:1009C000012283F844200C4B1B680C4A52F8233058
:1009D000012283F840200320FFF758FD064B1B68D7
:1009E0000133054A1360044B1A68084B1B689A428E
:1009F000A0DD00BF80BD00BF68040020DC00002037
:100A0000B4050020D34D62103C06002000000020F9
:100A100080B582B000AF0023FB71134B002283F836
:100A2000A821FFF7D3FC642210491148FFF713FCFB
:100A30000346002B01D0042312E00E4B0E4A07CAD6
:100A400003C31A800D4BFF221A710C4B0C4A9A609B
:100A50000A4B4FF47A721A60084800F027F8FB79C5
:100A600018460837BD4680BDDC000020D8020020B3
:100A70006C040020A00200207826000888020020D4
:100A80008503000880B582B000AF786039603B68AC
:100A9000002283F844203B687A689A64386800F042
:100AA00059F800BF0837BD4680BD000080B584B04E
:100AB00000AF78601B4B1B6801331A4A1360002398
:100AC000FB73194BD3F898217B681B68D21A17491E
:100AD000174BCB1A9A4201D202231FE0124BD3F8D4
:100AE00098217B68DA607B68DA687B681B68D21AB9
:100AF0007B681A617B681B69083B0B4AC2F8983116
:100B00007868FFF781FC7B68002283F84020054B62
:100B10001B6805497A6841F82320FB7B184610378B
:100B2000BD4680BD00000020DC0000200028002021
:100B30004008002080B582B000AF78607B68012259
:100B400083F840200120FFF7A1FC00231846083756
:100B5000BD4680BD80B582B000AF78607B68002262
:100B600083F840200220FFF791FC00231846083745
:100B7000BD4680BD80B500AF154B012283F8A8218A
:100B8000134B144AC3F89C211248FFF7D3FFFFF719
:100B90005AFB0F4BD3F89C315B69184680F30988E8
:100BA000EFF3148040F0020080F3148842F0010259
:100BB00082F31488EFF3148242F0010282F3148866
:100BC000034BD3F89C319B68984700BF80BD00BFA2
:100BD000DC0000208802002080B483B000AF786081
:100BE0007B68DB681A797B689B681B799A4211D213
:100BF0007B689B68012283F84C207B689A687B683D
:100C00009B68127983F84D207B68DA687B689B6863
:100C100012791A7100BF0C37BD4680BC704780B591
:100C200082B000AF786039607B689B68002B03D18D
:100C30007B683A689A600FE07B68DB68002B09D11B
:100C40007B683A68DA607868FFF7C6FF3868FFF7B4
:100C500081FF01E0032300E0002318460837BD466A
:100C600080BD80B582B000AF78607B689B6893F8E8
:100C70004C30012B0BD17B689B68002283F84C2001
:100C80007B689A687B689B6892F84D201A717B6834
:100C9000DB68002B0CD07B68DA687B689A607B6825
:100CA0000022DA607B689B681846FFF743FF02E08A
:100CB0007B6800229A60002318460837BD4680BD35
:100CC00080B500AF154B1B68002B04D0134B1B687D
:100CD000013B124A1360124B1B68002B04D0104BCF
:100CE0001B68013B0E4A13600E4B1B68002B04D09F
:100CF0000C4B1B68013B0B4A13600B4B1B68002B12
:100D000004D0094B1B68013B074A1360FFF70CFE38
:100D1000FFF734FDFFF788FD00BF80BDBC00002059
:100D2000C0000020C8000020CC0000206F4BD3F88A
:100D30009C31EFF3098002465A616C4BD3F89C3129
:100D40005A69043A5A61694BD3F89C315B6922466F
:100D50001A60664BD3F89C315A69043A5A61634B66
:100D6000D3F89C315B692A461A60604BD3F89C31FA
:100D70005A69043A5A615D4BD3F89C315B6932463B
:100D80001A605A4BD3F89C315A69043A5A61574B4E
:100D9000D3F89C315B693A461A60544BD3F89C31C6
:100DA0005A69043A5A61514BD3F89C315B69424607
:100DB0001A604E4BD3F89C315A69043A5A614B4B36
:100DC000D3F89C315B694A461A60484BD3F89C3192
:100DD0005A69043A5A61454BD3F89C315B695246D3
:100DE0001A60424BD3F89C315A69043A5A613F4B1E
:100DF000D3F89C315B695A461A603C4BD3F8A0315A
:100E0000002B09D0394BD3F8A031384AC2F89C31B5
:100E1000364B0022C3F8A021344BD3F89C315B69D8
:100E20001B689B46314BD3F89C315A6904325A6196
:100E30002E4BD3F89C315B691B689A462B4BD3F839
:100E40009C315A6904325A61284BD3F89C315B6952
:100E50001B689946254BD3F89C315A6904325A6174
:100E6000224BD3F89C315B691B6898461F4BD3F823
:100E70009C315A6904325A611C4BD3F89C315B692E
:100E80001B681F46194BD3F89C315A6904325A61CA
:100E9000164BD3F89C315B691B681E46134BD3F885
:100EA0009C315A6904325A61104BD3F89C315B690A
:100EB0001B681D460D4BD3F89C315A6904325A61A8
:100EC0000A4BD3F89C315B691B681C46074BD3F86F
:100ED0009C315A6904325A61044BD3F89C315B69E6
:100EE000184680F30988704700BF00BFDC0000206F
:100EF00080B586B000AF78607B689B881A46012376
:100F000093409BB23B810423BB727B681B6807F153
:100F100008021146184600F0DBFB7B689B889B08A3
:100F20009BB2FB75FB7D9A003F4B13443B617B6892
:100F30009B88DBB203F00303DBB29B00FB733B69CE
:100F40001B68FA7B0F2101FA02F2D2431A403B6977
:100F50001A607B681B68184600F0D0F903461A46F1
:100F6000FB7B9A403B691B681A433B691A607B68AC
:100F70009B8819467B689B682C4A42F821307B6825
:100F80009B79012B04D0022B32D0002B18D046E0E5
:100F9000274B9B687A689288114601228A40114645
:100FA000234A0B439360224BDB687A689288114690
:100FB0006FF001028A4011461D4A0B40D3602EE0BB
:100FC0001B4BDB687A689288114601228A401146E1
:100FD000174A0B43D360164B9B687A689288114678
:100FE0006FF001028A401146114A0B40936016E0EF
:100FF0000F4B9B687A689288114601228A401146FD
:101000000B4A0B4393600A4BDB687A68928811465F
:1010100001228A401146064A0B43D36000BF00BF3D
:101020001837BD4680BD00BF080001408004002085
:101030000004014080B483B000AF0346FB71FB792C
:101040000F2B00F29A8001A252F823F08D100008B5
:10105000AF100008D1100008F310000815110008A7
:101060003711000837110008371100083711000840
:1010700037110008591100085911000859110008CA
:101080005911000859110008591100083D4B1B68FF
:10109000FA79012101FA02F211463A4A0B43136030
:1010A000394B1B68384A43F04003136065E0354B09
:1010B0001B68FA79012101FA02F21146314A0B4309
:1010C0001360314B1B68304A43F08003136054E0D7
:1010D0002C4B1B68FA79012101FA02F21146294AC8
:1010E0000B431360284B1B68274A43F4807313603B
:1010F00043E0244B1B68FA79012101FA02F2114600
:10110000204A0B431360204B1B681F4A43F40073B3
:10111000136032E01B4B1B68FA79012101FA02F2DD
:101120001146184A0B431360174B1B68164A43F4C9
:101130008063136021E0134B1B68FA79012101FAE7
:1011400002F211460F4A0B4313600F4B1B680E4A05
:1011500043F40003136010E00A4B1B68FA79012185
:1011600001FA02F21146074A0B431360074B1B6852
:10117000064A43F48073136000BF00BF0C37BD46BE
:1011800080BC70470004014000E100E004E100E0A1
:1011900080B483B000AF0346FB71FB790F2B00F2E4
:1011A000A18001A252F823F0E91100080D120008F5
:1011B0003112000855120008791200089D1200082B
:1011C0009D1200089D1200089D1200089D12000843
:1011D000C1120008C1120008C1120008C1120008A3
:1011E000C1120008C1120008414B1B68FA790121A5
:1011F00001FA02F2D24311463D4A0B4013603D4BC7
:101200001B683C4A43F0400313606BE0384B1B689B
:10121000FA79012101FA02F2D2431146344A0B4015
:101220001360344B1B68334A43F08003136059E06A
:101230002F4B1B68FA79012101FA02F2D2431146C1
:101240002B4A0B4013602B4B1B682A4A43F48073D4
:10125000136047E0264B1B68FA79012101FA02F27C
:10126000D2431146224A0B401360224B1B68214A8D
:1012700043F40073136035E01D4B1B68FA790121BC
:1012800001FA02F2D2431146194A0B401360194B7E
:101290001B68184A43F48063136023E0144B1B68F7
:1012A000FA79012101FA02F2D2431146104A0B40A9
:1012B0001360104B1B680F4A43F40003136011E0E6
:1012C0000B4B1B68FA79012101FA02F2D243114655
:1012D000074A0B401360084B1B68074A43F48073AE
:1012E000136000BF00BF0C37BD4680BC704700BF15
:1012F0000004014080E100E084E100E080B483B0BC
:1013000000AF78607B680E4A934201D1002312E05F
:101310007B680C4A934201D101230CE07B680A4AA6
:10132000934201D1022306E07B68084A934201D12F
:10133000032300E0002318460C37BD4680BC7047ED
:1013400000080140000C0140001001400014014061
:1013500080B500AF084B1B689847084B5B69074A8C
:1013600043F001035361064B1B68054A43F04003F9
:10137000136000BF80BD00BF800400200004014056
:1013800080E200E080B500AF084B5B689847084BEF
:101390005B69074A43F002035361064B1B68054A29
:1013A00043F08003136000BF80BD00BF80040020B5
:1013B0000004014080E200E080B500AF084B9B686C
:1013C0009847084B5B69074A43F004035361064B97
:1013D0001B68054A43F48073136000BF80BD00BFE3
:1013E000800400200004014080E200E080B500AFEE
:1013F000084BDB689847084B5B69074A43F00803D2
:101400005361064B1B68054A43F40073136000BF29
:1014100080BD00BF800400200004014080E200E0A5
:1014200080B500AF084B1B699847084B5B69074ABA
:1014300043F010035361064B1B68054A43F08003D9
:10144000136000BF80BD00BF800400200004014085
:1014500080E200E080B500AF294B5B6903F0200318
:10146000002B08D0264B5B69254A43F020035361CB
:10147000244B5B699847224B5B6903F04003002BC8
:1014800008D01F4B5B691E4A43F0400353611D4B5C
:101490009B6998471A4B5B6903F08003002B08D0C7
:1014A000174B5B69164A43F080035361154BDB69A8
:1014B0009847134B5B6903F48073002B08D0104BE3
:1014C0005B690F4A43F4807353610E4B1B6A984764
:1014D0000B4B5B6903F40073002B08D0084B5B696E
:1014E000074A43F400735361064B5B6A9847064B07
:1014F0001B68054A43F40003136000BF80BD00BFB2
:10150000000401408004002080E200E080B500AFCC
:10151000304B5B6903F48063002B08D02D4B5B6973
:101520002C4A43F4806353612B4B9B6A9847294BA9
:101530005B6903F40063002B08D0264B5B69254AE6
:1015400043F400635361244BDB6A9847214B5B698A
:1015500003F48053002B08D01E4B5B691D4A43F4F3
:10156000805353611C4B1B6B98471A4B5B6903F408
:101570000053002B08D0174B5B69164A43F4005305
:101580005361154B5B6B9847124B5B6903F48043C7
:10159000002B08D00F4B5B690E4A43F48043536124
:1015A0000D4B9B6B98470B4B5B6903F40043002B7F
:1015B00008D0084B5B69074A43F400435361064B6C
:1015C000DB6B9847054B1B68044A43F48073136038
:1015D00000BF80BD000401408004002084E200E0E0
:1015E00080B483B000AF0346FB80FB88802B42D0E1
:1015F000802B11DC082B36D0082B06DC022B2ED0DA
:10160000042B2ED0012B28D047E0202B2FD0402BAD
:101610002FD0102B29D040E0B3F5006F33D0B3F5B5
:10162000006F09DCB3F5007F29D0B3F5806F28D0B7
:10163000B3F5807F21D030E0B3F5005F27D0B3F55C
:10164000005F03DCB3F5805F1FD026E0B3F5804F69
:101650001FD0B3F5004F1ED01FE000231EE004236F
:101660001CE008231AE00C2318E0102316E01423D2
:1016700014E0182312E01C2310E000230EE00423E2
:101680000CE008230AE00C2308E0102306E01423F2
:1016900004E0182302E01C2300E0002318460C3766
:1016A000BD4680BC704780B483B000AF78600B4605
:1016B000FB707B681B68FA780F2101FA02F2D243B3
:1016C0001A407B681A6000BF0C37BD4680BC70476B
:1016D00080B586B000AF786039603B689B78022B9C
:1016E0000BD03B689B78062B07D03B689B780A2B76
:1016F00003D03B689B780E2B0BD13B689B78FB7526
:10170000FB7D023BFB753B68DA78FB7D1344FB7580
:1017100002E03B689B78FB753B689B78092B02D104
:10172000FB7D013BFB753B681B88032B2BD0002303
:101730003B613B681B88802B02D97B68043300E047
:101740007B683B613B681B881846FFF749FF0346EF
:10175000FB73FB7B19463869FFF7A5FF3B691B68E4
:10176000F97DFA7B01FA02F21A433B691A603B6881
:101770009B78082B57D17B68DB683A6812881A433C
:101780007B68DA604FE000237B750023BB7547E080
:10179000BB7D072B1CD87B687A7D11461846FFF766
:1017A00082FF7B681B68F97D7A7D01FA02F21A4399
:1017B0007B681A603B689B78082B2BD17B68DB68C1
:1017C000BA7D012101FA02F21A437B68DA6021E056
:1017D000BB7D082B01D100237B757B6804337A7DA8
:1017E00011461846FFF75FFF7B685B68F97D7A7DDD
:1017F00001FA02F21A437B685A603B689B78082B17
:1018000008D17B68DB68BA7D012101FA02F21A4334
:101810007B68DA607B7D04337B75BB7D0133BB75F0
:10182000BB7D0F2BB4D900BF1837BD4680BD00006B
:1018300080B584B000AF4023BB810423BB7307F1A4
:101840000C0319462948FFF743FF8023BB8107F1AA
:101850000C0319462548FFF73BFF4FF48043BB813B
:1018600007F10C0319462248FFF732FF4FF40043FB
:10187000BB8107F10C0319461D48FFF729FF01231F
:10188000BB710623BB80194B3B601A4BBB603B46C8
:101890001846FFF72DFB0723BB80174BBB603B4669
:1018A0001846FFF725FB0E23BB80114B3B60134B03
:1018B000BB603B461846FFF71BFB0F23BB80104B5A
:1018C000BB603B461846FFF713FB0620FFF7B2FB51
:1018D0000720FFF7AFFB0E20FFF7ACFB0F20FFF751
:1018E000A9FB00BF1037BD4680BD00BF0008014006
:1018F000000C014081230008A9230008D12300081F
:10190000F923000880B485B000AF78600023FB6045
:101910000BE00023BB6002E0BB680133BB60BB6827
:10192000FE2BF9D9FB680133FB60FB687A689A42A9
:10193000EFD800BF1437BD4680BC704780B582B079
:1019400000AF0346FB71FB79002B1DD1204B1B8898
:10195000C3F34103DBB21E4A43F00103D9B213784B
:1019600061F3420313701420FFF7CCFF184B1B8860
:10197000C3F34103DBB2164A03F00203D9B2137872
:1019800061F3420313701FE0FB79012B1CD1114B53
:101990001B88C3F38123DBB20E4A43F00103D9B2A3
:1019A000138861F38B2313801420FFF7ABFF094BDF
:1019B0001B88C3F38123DBB2064A03F00203D9B2CA
:1019C000138861F38B23138000BF0837BD4680BDA9
:1019D0000C0C01400C08014080B582B000AF0346FA
:1019E000FB713220FFF78EFFFB79002B0DD10F4BDF
:1019F0001B88C3F34103DBB20C4A03F00103D9B2E5
:101A0000137861F3420313700CE0094B1B88C3F396
:101A10008123DBB2064A03F00103D9B2138861F3D4
:101A20008B23138000BF0837BD4680BD0C0C0140DE
:101A30000C08014080B582B000AF03460A46FB7136
:101A40001346BB71BB791846FFF7C6FFBB79002B65
:101A500027D1FB791B09DBB2274A03F00F03D9B268
:101A6000137861F3C6031370234B1B88C3F3410340
:101A7000DBB2214A03F00103D9B2137861F34203C8
:101A800013700020FFF75AFF1B4AFB7903F00F0386
:101A9000D9B2137861F3C60313700020FFF74EFF2D
:101AA00026E0FB791B09DBB2144A03F00F03D9B21D
:101AB000138861F30F331380104B1B88C3F381230A
:101AC000DBB20E4A03F00103D9B2138861F38B2312
:101AD00013800120FFF732FF084AFB7903F00F0360
:101AE000D9B2138861F30F3313800120FFF726FF6B
:101AF00000BF0837BD4680BD0C0C01400C080140FA
:101B000080B582B000AF3220FFF7FCFE0223BB801D
:101B10000223BB710123FB713B1D19466848FFF787
:101B2000D7FD0423BB803B1D19466548FFF7D0FD58
:101B30000823BB803B1D19466148FFF7C9FD1023F0
:101B4000BB803B1D19465E48FFF7C2FD2023BB80CA
:101B50003B1D19465A48FFF7BBFD4023BB803B1D88
:101B600019465748FFF7B4FD4FF48063BB8002234A
:101B7000BB710123FB713B1D19465248FFF7A8FDBD
:101B80004FF40063BB803B1D19464E48FFF7A0FD94
:101B90004FF48053BB803B1D19464A48FFF798FD20
:101BA0004FF40053BB803B1D19464648FFF790FD9C
:101BB0004FF48043BB803B1D19464248FFF788FD28
:101BC0004FF40043BB803B1D19463E48FFF780FDA4
:101BD0003D4B1B88C3F341033B4A13786FF3420329
:101BE00013703A4B1B88C3F38123384A13886FF371
:101BF0008B2313800020FFF7EFFE00213220FFF738
:101C000019FF0120FFF7E8FE01213220FFF712FF44
:101C10000020FFF7E1FE00212C20FFF70BFF012041
:101C2000FFF7DAFE01212C20FFF704FF0020FFF769
:101C3000D3FE00210120FFF7FDFE0120FFF7CCFEBF
:101C400001210120FFF7F6FE0020FFF7C5FE00216D
:101C50000220FFF7EFFE0120FFF7BEFE0121022068
:101C6000FFF7E8FE0020FFF7B7FE00210620FFF790
:101C7000E1FE0120FFF7B0FE01210620FFF7DAFEAA
:101C80000020FFF7A9FE00210F20FFF7D3FE01205F
:101C9000FFF7A2FE01210F20FFF7CCFE0020FFF787
:101CA0009BFE00218020FFF7C5FE0120FFF794FE78
:101CB00001218020FFF7BEFE00BF0837BD4680BD72
:101CC000000C0140000801400C0C01400C080140D0
:101CD00080B582B000AF03460A46FB711346BB7164
:101CE000BB79002B2AD10020FFF776FE2C4B1B88F6
:101CF000C3F34103DBB22A4A43F00203D9B213789B
:101D000061F342031370FB791B09DBB2244A03F031
:101D10000F03D9B2137861F3C60313700020FFF7E5
:101D20000DFE1F4AFB7903F00F03D9B2137861F35C
:101D3000C60313700020FFF701FE2CE0BB79012BD6
:101D400029D10120FFF748FE164B1B88C3F38123DE
:101D5000DBB2144A43F00203D9B2138861F38B2338
:101D60001380FB791B09DBB20E4A03F00F03D9B2D3
:101D7000138861F30F3313800120FFF7DFFD094A59
:101D8000FB7903F00F03D9B2138861F30F3313808B
:101D90000120FFF7D3FD00BF0837BD4680BD00BF5F
:101DA0000C0C01400C08014080B584B000AF786095
:101DB0000B46FB700023FB7327E0FB781846FFF708
:101DC0000BFEFB7B102B04D1FB781946C020FFF7DC
:101DD00031FEFB7B202B04D1FB7819469020FFF7C6
:101DE00029FEFB7B302B04D1FB781946D020FFF76E
:101DF00021FEFB7B7A6813441B78FA78114618465B
:101E0000FFF766FFFB7B0133FB73FB7B7A681344B0
:101E10001B78002BD1D100BF1037BD4680BD00001C
:101E200080B500AFFEF706FA094B9B69084A43F0FC
:101E300004039361064B9B69054A43F008039361D1
:101E4000034B9B69024A43F00103936100BF80BDCD
:101E50000010024080B500AFFFF752FE00F0E0FA3C
:101E6000FFF7E6FC00BF80BD80B582B000AF514BEC
:101E70001B78DBB2002B0AD04F4B1B78DBB2002B58
:101E800005D14D4B01221A704C48FEF753FE4C49C8
:101E90004C48FEF7C4FE4C4B1B78DBB2002B54D1F0
:101EA0004A4B1B68B3F1FF3F04D1484B5B68B3F169
:101EB000FF3F4AD0454B1B68B3F1FF3F0ED0434B69
:101EC0005B68B3F1FF3F09D0042000F01BFB4048E2
:101ED000FEF7C5FB3F48FEF7C2FB36E03B4B1B68F5
:101EE000B3F1FF3F16D0394B5B68B3F1FF3F11D11F
:101EF000364B1B68DBB2184600F004FB334B1B6803
:101F0000022B03D13248FEF7AAFB1EE03148FEF750
:101F1000A6FB1AE02D4B1B68B3F1FF3F15D12B4BED
:101F20005B68B3F1FF3F10D0284B5B68DBB218460B
:101F300000F0E8FA254B5B68022B03D12448FEF73A
:101F40008EFB02E02348FEF78AFB1E48FEF789FE5F
:101F5000214B1B687B6026E01B4B1B78DBB2002B00
:101F600025D07B681C4A13601B4B1B68032B02D1D6
:101F7000194B00221A607B68184A12F81330184671
:101F800000F0C0FA7B68154A5B0013445B781A4680
:101F90004FF47A7303FB02F309491846FEF772FD0A
:101FA0007B6801337B607B68032BD5DD5FE700BF77
:101FB0005DE700BFD0000020C40000201005002015
:101FC000B4050020040600200C0000209000002032
:101FD0003800002064000020D4000020040000200D
:101FE00080B500AFA44B93F84030002B07D1A34B32
:101FF0001B78DBB2002B02D09F48FEF79BFDA04B65
:102000001B78DBB2032B00F2B58001A252F823F05B
:102010002120000821200008D5200008D520000834
:1020200098499948FEF7FBFD984B1B68B3F1FF3FB9
:1020300025D1964B02221A609348FEF712FE94486F
:10204000FEF700FB00BF9348FEF716FB0346002B8C
:10205000F9D09048FEF7F6FA8F4B43F698221A60B3
:102060000620FEF713FA8D4B45F2E4721A60844B9A
:1020700004221A7000218A48FFF796FE7CE0834B09
:102080005B68B3F1FF3F77D1804B02225A607E48F4
:10209000FEF7E7FD7E48FEF7D5FA00BF7D48FEF764
:1020A000EBFA0346002BF9D07A48FEF7CBFA7D4BCA
:1020B00043F698221A600620FEF7E8F9774B45F2BE
:1020C000E4721A606E4B04221A7000217448FFF704
:1020D0006BFE51E06D4B1B68B3F1FF3F22D16B4BA0
:1020E00000221A606A48FEF7ADFA00BF6E48FEF79C
:1020F000C3FA0346002BF9D06B48FEF7A3FA664BF0
:1021000043F698221A600820FEF7C0F9674B45F2A3
:10211000E4721A605A4B04221A7001216448FFF7D6
:1021200043FE2BE0594B5B68B3F1FF3F26D1574B81
:1021300000225A605648FEF785FA00BF5A48FEF75B
:102140009BFA0346002BF9D05748FEF77BFA554B14
:1021500043F698221A600820FEF798F9534B45F28F
:10216000E4721A60464B04221A7001215048FFF7AE
:102170001BFE03E000BF02E000BF00E000BF4149DA
:102180004148FEF74CFD444B1B68002B1CD13F4BD4
:102190001B68B3F1FF3F17D03C4B1B68002B04D1E9
:1021A00001210120FFF746FC03E000210120FFF799
:1021B00041FC364B4FF0FF321A60304B1B78DBB2DC
:1021C000013BDAB22D4B1A70364B1B68002B1CD129
:1021D0002E4B5B68B3F1FF3F17D02C4B5B68002B95
:1021E00004D101210120FFF725FC03E0002101209B
:1021F000FFF720FC254B4FF0FF325A601F4B1B7836
:10220000DBB2013BDAB21D4B1A70234B1B68002B6B
:1022100014D1244B1B68002B10D11C4B4FF0FF3204
:102220001A601A4B4FF0FF325A60144B00221A709A
:102230001748FEF714FA1F4B00221A701248FEF7D7
:1022400010FD164B1B68002B7FF4CCAE174B1B68A0
:10225000002B7FF4C7AE0E48FEF70EFA0346002BA4
:102260003FF4C0AE0520FEF711F90720FEF70EF986
:102270000448FEF76FFCB5E6B4050020D00000204E
:10228000B00500201005002004060020900000206A
:102290000C00002038000020BC000020C8000020F6
:1022A00084260008C000002064000020CC0000202C
:1022B000AC260008C4000020B0B500AFFFF7B0FDA9
:1022C000FFF7C8FDFEF7A4FB214B03221A71204B38
:1022D000204A9A601E4B4FF480621A601E4B1F4AC0
:1022E00092E8030083E803001948FEF7DFFB1C4B6C
:1022F00003221A711A4B1B4A9A60194B4FF48062E1
:102300001A60194B194A92E8030083E80300144845
:10231000FEF7CCFB164B00229A60154B0022DA60C8
:10232000134B144A1A60124B08225A60124A134B7C
:1023300014461D460FCD0FC495E80F0007C4237047
:102340000348FEF7F7FBFEF715FC00231846B0BD67
:10235000B4050020691E0008CC050020D426000822
:1023600010050020E11F000828050020DC260008D9
:10237000040600209000002014060020E426000837
:1023800080B400AF064B00221A70064B1B78DBB2FC
:102390000133DAB2034B1A7000BFBD4680BC7047F0
:1023A000B0050020D000002080B400AF064B012211
:1023B0001A70064B1B78DBB20133DAB2034B1A708A
:1023C00000BFBD4680BC7047B0050020D000002093
:1023D00080B400AF064B02221A70064B1B78DBB2AA
:1023E0000133DAB2034B1A7000BFBD4680BC7047A0
:1023F000B0050020D000002080B400AF064B0322BF
:102400001A70064B1B78DBB20133DAB2034B1A7039
:1024100000BFBD4680BC7047B0050020D000002042
:1024200080B582B000AF0123BB800223FB71022381
:10243000BB713B1D19463048FFF74AF90223BB80A8
:102440003B1D19462C48FFF743F90423BB803B1D75
:1024500019462948FFF73CF90823BB803B1D194664
:102460002548FFF735F91023BB803B1D194622484C
:10247000FFF72EF92023BB803B1D19461E48FFF7AE
:1024800027F91E4A13786FF3050313704FF4807316
:10249000BB800423BB713B1D19461948FFF718F98F
:1024A0004FF40073BB803B1D19461548FFF710F928
:1024B0004FF48063BB803B1D19461148FFF708F9B4
:1024C0004FF40063BB803B1D19460D48FFF700F930
:1024D0004FF48053BB803B1D19460948FFF7F8F8BD
:1024E0004FF40053BB803B1D19460548FFF7F0F839
:1024F00000BF0837BD4680BD000801400C08014000
:10250000000C014080B483B000AF0346FB71FB793F
:10251000042B4ED801A252F823F000BF3125000849
:102520004B250008652500087F250008992500082F
:10253000224A1378212161F305031370204B0022F6
:102540001A701F4B14225A7033E01C4A1378222150
:1025500061F3050313701A4B01221A70184B052200
:102560005A7026E0154A13780C2161F305031370A5
:10257000134B02221A70124B14225A7019E00F4AA0
:102580001378142161F3050313700D4B03221A70A5
:102590000B4B05225A700CE0084A1378242161F392
:1025A00005031370064B03221A70054B05225A705F
:1025B00000BF00BF0C37BD4680BC70470C0801400F
:1025C0003C0600200D488546AFF300800C480D49BD
:1025D0000D4A002302E0D458C4500433C4188C427E
:1025E000F9D30A4A0A4C002301E013600432A242E4
:1025F000FBD300F011F8FFF75FFEFEE70028002094
:1026000000000020980000200C27000898000020FF
:1026100040060020FEE7000070B500250C4E0D4C72
:10262000A41BA410A54209D100F01AF800250A4EF7
:102630000A4CA41BA410A54205D170BD56F8253044
:1026400098470135EEE756F8253098470135F2E70F
:1026500004270008042700080427000808270008AA
:10266000F8B500BFF8BC08BC9E467047F8B500BF7F
:08267000F8BC08BC9E4670474F
:1026780069646C65207461736B0000007065646543
:1026880073747269616E2063616E2063726F737315
:10269800204E4F525448202F20534F5554482077EE
:1026A800617920007065646573747269616E206376
:1026B800616E2063726F73732045617374202F20DD
:1026C8005765737420776179200000007461736B1B
:1026D800203120007461736B203220006D757465A1
:1026E8007820736861726564206265747765656EC9
:0C26F800207431202D20743200000000FE
:042704005501000873
:042708003101000893
:10270C00FFFFFFFF0014010502140305016C69674C
:10271C006874732073656D6170686F72650000007A
:10272C00000000000000000000000000000000009D
:10273C000000000000000000004C43442073656D55
:10274C006170686F726500000000000000000000FE
:10275C00000000000000000000000000000000006D
:10276C0000000000004C43442073656D6170686F7D
:10277C007265000000000000000000000000000076
:10278C00000000000000000000000000000000003D
:08279C00FFFFFFFFFFFFFFFF3D
:04000005080025C505
:00000001FF
